:100000000C9434000C9451000C9451000C94510049
:100010000C9451000C9451000C9451000C9451001C
:100020000C9451000C9451000C9451000C9451000C
:100030000C9451000C9451000C9451000C945100FC
:100040000C9451000C9451000C9451000C945100EC
:100050000C9451000C9451000C9451000C945100DC
:100060000C9451000C94510011241FBECFEFD8E026
:10007000DEBFCDBF11E0A0E0B1E0E8ECF0E002C0EF
:1000800005900D92A030B107D9F721E0A0E0B1E0D2
:1000900001C01D92A030B207E1F70E9453000C94FA
:1000A00062000C9400008AB18FEF8AB99BB18BB9C2
:1000B0002FEF34E39CE0215030409040E1F700C046
:0800C0000000F4CFF894FFCF1B
:00000001FF
